{
  "_format": "hh-sol-artifact-1",
  "contractName": "Vault",
  "sourceName": "contracts/vault.sol",
  "abi": [
    {
      "inputs": [
        {
          "internalType": "address",
          "name": "_userAddress",
          "type": "address"
        }
      ],
      "name": "getBankAccounts",
      "outputs": [
        {
          "components": [
            {
              "internalType": "string",
              "name": "informationType",
              "type": "string"
            },
            {
              "internalType": "string",
              "name": "bankName",
              "type": "string"
            },
            {
              "internalType": "string",
              "name": "accountNumber",
              "type": "string"
            }
          ],
          "internalType": "struct Vault.BankAccounts[]",
          "name": "",
          "type": "tuple[]"
        }
      ],
      "stateMutability": "view",
      "type": "function"
    },
    {
      "inputs": [
        {
          "internalType": "address",
          "name": "_userAddress",
          "type": "address"
        }
      ],
      "name": "getDrivingLicenses",
      "outputs": [
        {
          "components": [
            {
              "internalType": "string",
              "name": "informationType",
              "type": "string"
            },
            {
              "internalType": "string",
              "name": "name",
              "type": "string"
            },
            {
              "internalType": "string",
              "name": "licenseNumber",
              "type": "string"
            }
          ],
          "internalType": "struct Vault.DrivingLicense[]",
          "name": "",
          "type": "tuple[]"
        }
      ],
      "stateMutability": "view",
      "type": "function"
    },
    {
      "inputs": [
        {
          "internalType": "address",
          "name": "_userAddress",
          "type": "address"
        }
      ],
      "name": "getLogins",
      "outputs": [
        {
          "components": [
            {
              "internalType": "string",
              "name": "informationType",
              "type": "string"
            },
            {
              "internalType": "string",
              "name": "title",
              "type": "string"
            },
            {
              "internalType": "string",
              "name": "userName",
              "type": "string"
            },
            {
              "internalType": "bytes32",
              "name": "passwordHash",
              "type": "bytes32"
            }
          ],
          "internalType": "struct Vault.Logins[]",
          "name": "",
          "type": "tuple[]"
        }
      ],
      "stateMutability": "view",
      "type": "function"
    },
    {
      "inputs": [
        {
          "internalType": "address",
          "name": "_userAddress",
          "type": "address"
        }
      ],
      "name": "getPasswords",
      "outputs": [
        {
          "components": [
            {
              "internalType": "string",
              "name": "informationType",
              "type": "string"
            },
            {
              "internalType": "string",
              "name": "credentialName",
              "type": "string"
            },
            {
              "internalType": "string",
              "name": "userName",
              "type": "string"
            },
            {
              "internalType": "bytes32",
              "name": "passwordHash",
              "type": "bytes32"
            }
          ],
          "internalType": "struct Vault.Passwords[]",
          "name": "",
          "type": "tuple[]"
        }
      ],
      "stateMutability": "view",
      "type": "function"
    },
    {
      "inputs": [
        {
          "internalType": "address",
          "name": "_userAddress",
          "type": "address"
        }
      ],
      "name": "getSecureNotes",
      "outputs": [
        {
          "components": [
            {
              "internalType": "string",
              "name": "informationType",
              "type": "string"
            },
            {
              "internalType": "string",
              "name": "title",
              "type": "string"
            },
            {
              "internalType": "string",
              "name": "detail",
              "type": "string"
            }
          ],
          "internalType": "struct Vault.SecureNotes[]",
          "name": "",
          "type": "tuple[]"
        }
      ],
      "stateMutability": "view",
      "type": "function"
    },
    {
      "inputs": [
        {
          "internalType": "address",
          "name": "_userAddress",
          "type": "address"
        }
      ],
      "name": "getSecurityNumbers",
      "outputs": [
        {
          "components": [
            {
              "internalType": "string",
              "name": "informationType",
              "type": "string"
            },
            {
              "internalType": "string",
              "name": "name",
              "type": "string"
            },
            {
              "internalType": "string",
              "name": "securityNumber",
              "type": "string"
            }
          ],
          "internalType": "struct Vault.SecurityNumbers[]",
          "name": "",
          "type": "tuple[]"
        }
      ],
      "stateMutability": "view",
      "type": "function"
    },
    {
      "inputs": [
        {
          "internalType": "address",
          "name": "_userAddress",
          "type": "address"
        }
      ],
      "name": "getSocialSecurityNumbers",
      "outputs": [
        {
          "components": [
            {
              "internalType": "string",
              "name": "informationType",
              "type": "string"
            },
            {
              "internalType": "string",
              "name": "name",
              "type": "string"
            },
            {
              "internalType": "string",
              "name": "ssn",
              "type": "string"
            }
          ],
          "internalType": "struct Vault.SocialSecurityNumber[]",
          "name": "",
          "type": "tuple[]"
        }
      ],
      "stateMutability": "view",
      "type": "function"
    },
    {
      "inputs": [
        {
          "internalType": "string",
          "name": "_informationType",
          "type": "string"
        },
        {
          "internalType": "address",
          "name": "_userAddress",
          "type": "address"
        },
        {
          "internalType": "string",
          "name": "_bankName",
          "type": "string"
        },
        {
          "internalType": "string",
          "name": "_accountNumber",
          "type": "string"
        }
      ],
      "name": "setBankAccount",
      "outputs": [],
      "stateMutability": "nonpayable",
      "type": "function"
    },
    {
      "inputs": [
        {
          "internalType": "string",
          "name": "_informationType",
          "type": "string"
        },
        {
          "internalType": "address",
          "name": "_userAddress",
          "type": "address"
        },
        {
          "internalType": "string",
          "name": "_name",
          "type": "string"
        },
        {
          "internalType": "string",
          "name": "_licenseNumber",
          "type": "string"
        }
      ],
      "name": "setDrivingLicense",
      "outputs": [],
      "stateMutability": "nonpayable",
      "type": "function"
    },
    {
      "inputs": [
        {
          "internalType": "string",
          "name": "_informationType",
          "type": "string"
        },
        {
          "internalType": "address",
          "name": "_userAddress",
          "type": "address"
        },
        {
          "internalType": "string",
          "name": "_title",
          "type": "string"
        },
        {
          "internalType": "string",
          "name": "_userName",
          "type": "string"
        },
        {
          "internalType": "string",
          "name": "_password",
          "type": "string"
        }
      ],
      "name": "setLogin",
      "outputs": [],
      "stateMutability": "nonpayable",
      "type": "function"
    },
    {
      "inputs": [
        {
          "internalType": "string",
          "name": "_informationType",
          "type": "string"
        },
        {
          "internalType": "address",
          "name": "_userAddress",
          "type": "address"
        },
        {
          "internalType": "string",
          "name": "_credentialName",
          "type": "string"
        },
        {
          "internalType": "string",
          "name": "_userName",
          "type": "string"
        },
        {
          "internalType": "string",
          "name": "_password",
          "type": "string"
        }
      ],
      "name": "setPassword",
      "outputs": [],
      "stateMutability": "nonpayable",
      "type": "function"
    },
    {
      "inputs": [
        {
          "internalType": "string",
          "name": "_informationType",
          "type": "string"
        },
        {
          "internalType": "address",
          "name": "_userAddress",
          "type": "address"
        },
        {
          "internalType": "string",
          "name": "_title",
          "type": "string"
        },
        {
          "internalType": "string",
          "name": "_detail",
          "type": "string"
        }
      ],
      "name": "setSecureNotes",
      "outputs": [],
      "stateMutability": "nonpayable",
      "type": "function"
    },
    {
      "inputs": [
        {
          "internalType": "string",
          "name": "_informationType",
          "type": "string"
        },
        {
          "internalType": "address",
          "name": "_userAddress",
          "type": "address"
        },
        {
          "internalType": "string",
          "name": "_name",
          "type": "string"
        },
        {
          "internalType": "string",
          "name": "_securityNumber",
          "type": "string"
        }
      ],
      "name": "setSecurityNumbers",
      "outputs": [],
      "stateMutability": "nonpayable",
      "type": "function"
    },
    {
      "inputs": [
        {
          "internalType": "string",
          "name": "_informationType",
          "type": "string"
        },
        {
          "internalType": "address",
          "name": "_userAddress",
          "type": "address"
        },
        {
          "internalType": "string",
          "name": "_name",
          "type": "string"
        },
        {
          "internalType": "string",
          "name": "_ssn",
          "type": "string"
        }
      ],
      "name": "setSocialSecurityNumber",
      "outputs": [],
      "stateMutability": "nonpayable",
      "type": "function"
    }
  ],
  "bytecode": "0x608060405234801561001057600080fd5b50612a28806100206000396000f3fe608060405234801561001057600080fd5b50600436106100ea5760003560e01c80635f8db7c11161008c578063876f9fd711610066578063876f9fd714610257578063bb7c8b6014610287578063cbaa9671146102b7578063e4e539a1146102d3576100ea565b80635f8db7c1146101ef578063733d67411461021f57806375e356da1461023b576100ea565b80631d5508dc116100c85780631d5508dc1461015757806330155665146101735780633cdc10e81461018f5780635683693f146101bf576100ea565b8063109e9497146100ef57806310e48d561461010b57806311162d1c1461013b575b600080fd5b61010960048036038101906101049190611b58565b610303565b005b61012560048036038101906101209190611c13565b6103d6565b6040516101329190611ddf565b60405180910390f35b61015560048036038101906101509190611b58565b61062a565b005b610171600480360381019061016c9190611b58565b6106fd565b005b61018d60048036038101906101889190611e01565b6107d0565b005b6101a960048036038101906101a49190611c13565b6108df565b6040516101b6919061200c565b60405180910390f35b6101d960048036038101906101d49190611c13565b610b33565b6040516101e6919061217a565b60405180910390f35b61020960048036038101906102049190611c13565b610d90565b60405161021691906122bc565b60405180910390f35b61023960048036038101906102349190611b58565b610fe4565b005b61025560048036038101906102509190611e01565b6110b7565b005b610271600480360381019061026c9190611c13565b6111c7565b60405161027e91906123fe565b60405180910390f35b6102a1600480360381019061029c9190611c13565b61141b565b6040516102ae9190612540565b60405180910390f35b6102d160048036038101906102cc9190611b58565b61166f565b005b6102ed60048036038101906102e89190611c13565b611742565b6040516102fa9190612695565b60405180910390f35b60006040518060600160405280868152602001848152602001838152509050600460008573ffffffffffffffffffffffffffffffffffffffff1673ffffffffffffffffffffffffffffffffffffffff16815260200190815260200160002081908060018154018082558091505060019003906000526020600020906003020160009091909190915060008201518160000190816103a091906128cd565b5060208201518160010190816103b691906128cd565b5060408201518160020190816103cc91906128cd565b5050505050505050565b6060600260008373ffffffffffffffffffffffffffffffffffffffff1673ffffffffffffffffffffffffffffffffffffffff168152602001908152602001600020805480602002602001604051908101604052809291908181526020016000905b8282101561061f578382906000526020600020906003020160405180606001604052908160008201805461046a906126e6565b80601f0160208091040260200160405190810160405280929190818152602001828054610496906126e6565b80156104e35780601f106104b8576101008083540402835291602001916104e3565b820191906000526020600020905b8154815290600101906020018083116104c657829003601f168201915b505050505081526020016001820180546104fc906126e6565b80601f0160208091040260200160405190810160405280929190818152602001828054610528906126e6565b80156105755780601f1061054a57610100808354040283529160200191610575565b820191906000526020600020905b81548152906001019060200180831161055857829003601f168201915b5050505050815260200160028201805461058e906126e6565b80601f01602080910402602001604051908101604052809291908181526020018280546105ba906126e6565b80156106075780601f106105dc57610100808354040283529160200191610607565b820191906000526020600020905b8154815290600101906020018083116105ea57829003601f168201915b50505050508152505081526020019060010190610437565b505050509050919050565b60006040518060600160405280868152602001848152602001838152509050600260008573ffffffffffffffffffffffffffffffffffffffff1673ffffffffffffffffffffffffffffffffffffffff16815260200190815260200160002081908060018154018082558091505060019003906000526020600020906003020160009091909190915060008201518160000190816106c791906128cd565b5060208201518160010190816106dd91906128cd565b5060408201518160020190816106f391906128cd565b5050505050505050565b60006040518060600160405280868152602001848152602001838152509050600160008573ffffffffffffffffffffffffffffffffffffffff1673ffffffffffffffffffffffffffffffffffffffff168152602001908152602001600020819080600181540180825580915050600190039060005260206000209060030201600090919091909150600082015181600001908161079a91906128cd565b5060208201518160010190816107b091906128cd565b5060408201518160020190816107c691906128cd565b5050505050505050565b6000816040516020016107e391906129db565b604051602081830303815290604052805190602001209050600060405180608001604052808881526020018681526020018581526020018381525090506000808773ffffffffffffffffffffffffffffffffffffffff1673ffffffffffffffffffffffffffffffffffffffff168152602001908152602001600020819080600181540180825580915050600190039060005260206000209060040201600090919091909150600082015181600001908161089d91906128cd565b5060208201518160010190816108b391906128cd565b5060408201518160020190816108c991906128cd565b5060608201518160030155505050505050505050565b6060600160008373ffffffffffffffffffffffffffffffffffffffff1673ffffffffffffffffffffffffffffffffffffffff168152602001908152602001600020805480602002602001604051908101604052809291908181526020016000905b82821015610b285783829060005260206000209060030201604051806060016040529081600082018054610973906126e6565b80601f016020809104026020016040519081016040528092919081815260200182805461099f906126e6565b80156109ec5780601f106109c1576101008083540402835291602001916109ec565b820191906000526020600020905b8154815290600101906020018083116109cf57829003601f168201915b50505050508152602001600182018054610a05906126e6565b80601f0160208091040260200160405190810160405280929190818152602001828054610a31906126e6565b8015610a7e5780601f10610a5357610100808354040283529160200191610a7e565b820191906000526020600020905b815481529060010190602001808311610a6157829003601f168201915b50505050508152602001600282018054610a97906126e6565b80601f0160208091040260200160405190810160405280929190818152602001828054610ac3906126e6565b8015610b105780601f10610ae557610100808354040283529160200191610b10565b820191906000526020600020905b815481529060010190602001808311610af357829003601f168201915b50505050508152505081526020019060010190610940565b505050509050919050565b60606000808373ffffffffffffffffffffffffffffffffffffffff1673ffffffffffffffffffffffffffffffffffffffff168152602001908152602001600020805480602002602001604051908101604052809291908181526020016000905b82821015610d855783829060005260206000209060040201604051806080016040529081600082018054610bc6906126e6565b80601f0160208091040260200160405190810160405280929190818152602001828054610bf2906126e6565b8015610c3f5780601f10610c1457610100808354040283529160200191610c3f565b820191906000526020600020905b815481529060010190602001808311610c2257829003601f168201915b50505050508152602001600182018054610c58906126e6565b80601f0160208091040260200160405190810160405280929190818152602001828054610c84906126e6565b8015610cd15780601f10610ca657610100808354040283529160200191610cd1565b820191906000526020600020905b815481529060010190602001808311610cb457829003601f168201915b50505050508152602001600282018054610cea906126e6565b80601f0160208091040260200160405190810160405280929190818152602001828054610d16906126e6565b8015610d635780601f10610d3857610100808354040283529160200191610d63565b820191906000526020600020905b815481529060010190602001808311610d4657829003601f168201915b5050505050815260200160038201548152505081526020019060010190610b93565b505050509050919050565b6060600660008373ffffffffffffffffffffffffffffffffffffffff1673ffffffffffffffffffffffffffffffffffffffff168152602001908152602001600020805480602002602001604051908101604052809291908181526020016000905b82821015610fd95783829060005260206000209060030201604051806060016040529081600082018054610e24906126e6565b80601f0160208091040260200160405190810160405280929190818152602001828054610e50906126e6565b8015610e9d5780601f10610e7257610100808354040283529160200191610e9d565b820191906000526020600020905b815481529060010190602001808311610e8057829003601f168201915b50505050508152602001600182018054610eb6906126e6565b80601f0160208091040260200160405190810160405280929190818152602001828054610ee2906126e6565b8015610f2f5780601f10610f0457610100808354040283529160200191610f2f565b820191906000526020600020905b815481529060010190602001808311610f1257829003601f168201915b50505050508152602001600282018054610f48906126e6565b80601f0160208091040260200160405190810160405280929190818152602001828054610f74906126e6565b8015610fc15780601f10610f9657610100808354040283529160200191610fc1565b820191906000526020600020905b815481529060010190602001808311610fa457829003601f168201915b50505050508152505081526020019060010190610df1565b505050509050919050565b60006040518060600160405280868152602001848152602001838152509050600660008573ffffffffffffffffffffffffffffffffffffffff1673ffffffffffffffffffffffffffffffffffffffff168152602001908152602001600020819080600181540180825580915050600190039060005260206000209060030201600090919091909150600082015181600001908161108191906128cd565b50602082015181600101908161109791906128cd565b5060408201518160020190816110ad91906128cd565b5050505050505050565b6000816040516020016110ca91906129db565b60405160208183030381529060405280519060200120905060006040518060800160405280888152602001868152602001858152602001838152509050600360008773ffffffffffffffffffffffffffffffffffffffff1673ffffffffffffffffffffffffffffffffffffffff168152602001908152602001600020819080600181540180825580915050600190039060005260206000209060040201600090919091909150600082015181600001908161118591906128cd565b50602082015181600101908161119b91906128cd565b5060408201518160020190816111b191906128cd565b5060608201518160030155505050505050505050565b6060600460008373ffffffffffffffffffffffffffffffffffffffff1673ffffffffffffffffffffffffffffffffffffffff168152602001908152602001600020805480602002602001604051908101604052809291908181526020016000905b82821015611410578382906000526020600020906003020160405180606001604052908160008201805461125b906126e6565b80601f0160208091040260200160405190810160405280929190818152602001828054611287906126e6565b80156112d45780601f106112a9576101008083540402835291602001916112d4565b820191906000526020600020905b8154815290600101906020018083116112b757829003601f168201915b505050505081526020016001820180546112ed906126e6565b80601f0160208091040260200160405190810160405280929190818152602001828054611319906126e6565b80156113665780601f1061133b57610100808354040283529160200191611366565b820191906000526020600020905b81548152906001019060200180831161134957829003601f168201915b5050505050815260200160028201805461137f906126e6565b80601f01602080910402602001604051908101604052809291908181526020018280546113ab906126e6565b80156113f85780601f106113cd576101008083540402835291602001916113f8565b820191906000526020600020905b8154815290600101906020018083116113db57829003601f168201915b50505050508152505081526020019060010190611228565b505050509050919050565b6060600560008373ffffffffffffffffffffffffffffffffffffffff1673ffffffffffffffffffffffffffffffffffffffff168152602001908152602001600020805480602002602001604051908101604052809291908181526020016000905b8282101561166457838290600052602060002090600302016040518060600160405290816000820180546114af906126e6565b80601f01602080910402602001604051908101604052809291908181526020018280546114db906126e6565b80156115285780601f106114fd57610100808354040283529160200191611528565b820191906000526020600020905b81548152906001019060200180831161150b57829003601f168201915b50505050508152602001600182018054611541906126e6565b80601f016020809104026020016040519081016040528092919081815260200182805461156d906126e6565b80156115ba5780601f1061158f576101008083540402835291602001916115ba565b820191906000526020600020905b81548152906001019060200180831161159d57829003601f168201915b505050505081526020016002820180546115d3906126e6565b80601f01602080910402602001604051908101604052809291908181526020018280546115ff906126e6565b801561164c5780601f106116215761010080835404028352916020019161164c565b820191906000526020600020905b81548152906001019060200180831161162f57829003601f168201915b5050505050815250508152602001906001019061147c565b505050509050919050565b60006040518060600160405280868152602001848152602001838152509050600560008573ffffffffffffffffffffffffffffffffffffffff1673ffffffffffffffffffffffffffffffffffffffff168152602001908152602001600020819080600181540180825580915050600190039060005260206000209060030201600090919091909150600082015181600001908161170c91906128cd565b50602082015181600101908161172291906128cd565b50604082015181600201908161173891906128cd565b5050505050505050565b6060600360008373ffffffffffffffffffffffffffffffffffffffff1673ffffffffffffffffffffffffffffffffffffffff168152602001908152602001600020805480602002602001604051908101604052809291908181526020016000905b8282101561199557838290600052602060002090600402016040518060800160405290816000820180546117d6906126e6565b80601f0160208091040260200160405190810160405280929190818152602001828054611802906126e6565b801561184f5780601f106118245761010080835404028352916020019161184f565b820191906000526020600020905b81548152906001019060200180831161183257829003601f168201915b50505050508152602001600182018054611868906126e6565b80601f0160208091040260200160405190810160405280929190818152602001828054611894906126e6565b80156118e15780601f106118b6576101008083540402835291602001916118e1565b820191906000526020600020905b8154815290600101906020018083116118c457829003601f168201915b505050505081526020016002820180546118fa906126e6565b80601f0160208091040260200160405190810160405280929190818152602001828054611926906126e6565b80156119735780601f1061194857610100808354040283529160200191611973565b820191906000526020600020905b81548152906001019060200180831161195657829003601f168201915b50505050508152602001600382015481525050815260200190600101906117a3565b505050509050919050565b6000604051905090565b600080fd5b600080fd5b600080fd5b600080fd5b6000601f19601f8301169050919050565b7f4e487b7100000000000000000000000000000000000000000000000000000000600052604160045260246000fd5b611a07826119be565b810181811067ffffffffffffffff82111715611a2657611a256119cf565b5b80604052505050565b6000611a396119a0565b9050611a4582826119fe565b919050565b600067ffffffffffffffff821115611a6557611a646119cf565b5b611a6e826119be565b9050602081019050919050565b82818337600083830152505050565b6000611a9d611a9884611a4a565b611a2f565b905082815260208101848484011115611ab957611ab86119b9565b5b611ac4848285611a7b565b509392505050565b600082601f830112611ae157611ae06119b4565b5b8135611af1848260208601611a8a565b91505092915050565b600073ffffffffffffffffffffffffffffffffffffffff82169050919050565b6000611b2582611afa565b9050919050565b611b3581611b1a565b8114611b4057600080fd5b50565b600081359050611b5281611b2c565b92915050565b60008060008060808587031215611b7257611b716119aa565b5b600085013567ffffffffffffffff811115611b9057611b8f6119af565b5b611b9c87828801611acc565b9450506020611bad87828801611b43565b935050604085013567ffffffffffffffff811115611bce57611bcd6119af565b5b611bda87828801611acc565b925050606085013567ffffffffffffffff811115611bfb57611bfa6119af565b5b611c0787828801611acc565b91505092959194509250565b600060208284031215611c2957611c286119aa565b5b6000611c3784828501611b43565b91505092915050565b600081519050919050565b600082825260208201905092915050565b6000819050602082019050919050565b600081519050919050565b600082825260208201905092915050565b60005b83811015611ca6578082015181840152602081019050611c8b565b60008484015250505050565b6000611cbd82611c6c565b611cc78185611c77565b9350611cd7818560208601611c88565b611ce0816119be565b840191505092915050565b60006060830160008301518482036000860152611d088282611cb2565b91505060208301518482036020860152611d228282611cb2565b91505060408301518482036040860152611d3c8282611cb2565b9150508091505092915050565b6000611d558383611ceb565b905092915050565b6000602082019050919050565b6000611d7582611c40565b611d7f8185611c4b565b935083602082028501611d9185611c5c565b8060005b85811015611dcd5784840389528151611dae8582611d49565b9450611db983611d5d565b925060208a01995050600181019050611d95565b50829750879550505050505092915050565b60006020820190508181036000830152611df98184611d6a565b905092915050565b600080600080600060a08688031215611e1d57611e1c6119aa565b5b600086013567ffffffffffffffff811115611e3b57611e3a6119af565b5b611e4788828901611acc565b9550506020611e5888828901611b43565b945050604086013567ffffffffffffffff811115611e7957611e786119af565b5b611e8588828901611acc565b935050606086013567ffffffffffffffff811115611ea657611ea56119af565b5b611eb288828901611acc565b925050608086013567ffffffffffffffff811115611ed357611ed26119af565b5b611edf88828901611acc565b9150509295509295909350565b600081519050919050565b600082825260208201905092915050565b6000819050602082019050919050565b60006060830160008301518482036000860152611f358282611cb2565b91505060208301518482036020860152611f4f8282611cb2565b91505060408301518482036040860152611f698282611cb2565b9150508091505092915050565b6000611f828383611f18565b905092915050565b6000602082019050919050565b6000611fa282611eec565b611fac8185611ef7565b935083602082028501611fbe85611f08565b8060005b85811015611ffa5784840389528151611fdb8582611f76565b9450611fe683611f8a565b925060208a01995050600181019050611fc2565b50829750879550505050505092915050565b600060208201905081810360008301526120268184611f97565b905092915050565b600081519050919050565b600082825260208201905092915050565b6000819050602082019050919050565b6000819050919050565b61206d8161205a565b82525050565b600060808301600083015184820360008601526120908282611cb2565b915050602083015184820360208601526120aa8282611cb2565b915050604083015184820360408601526120c48282611cb2565b91505060608301516120d96060860182612064565b508091505092915050565b60006120f08383612073565b905092915050565b6000602082019050919050565b60006121108261202e565b61211a8185612039565b93508360208202850161212c8561204a565b8060005b85811015612168578484038952815161214985826120e4565b9450612154836120f8565b925060208a01995050600181019050612130565b50829750879550505050505092915050565b600060208201905081810360008301526121948184612105565b905092915050565b600081519050919050565b600082825260208201905092915050565b6000819050602082019050919050565b600060608301600083015184820360008601526121e58282611cb2565b915050602083015184820360208601526121ff8282611cb2565b915050604083015184820360408601526122198282611cb2565b9150508091505092915050565b600061223283836121c8565b905092915050565b6000602082019050919050565b60006122528261219c565b61225c81856121a7565b93508360208202850161226e856121b8565b8060005b858110156122aa578484038952815161228b8582612226565b94506122968361223a565b925060208a01995050600181019050612272565b50829750879550505050505092915050565b600060208201905081810360008301526122d68184612247565b905092915050565b600081519050919050565b600082825260208201905092915050565b6000819050602082019050919050565b600060608301600083015184820360008601526123278282611cb2565b915050602083015184820360208601526123418282611cb2565b9150506040830151848203604086015261235b8282611cb2565b9150508091505092915050565b6000612374838361230a565b905092915050565b6000602082019050919050565b6000612394826122de565b61239e81856122e9565b9350836020820285016123b0856122fa565b8060005b858110156123ec57848403895281516123cd8582612368565b94506123d88361237c565b925060208a019950506001810190506123b4565b50829750879550505050505092915050565b600060208201905081810360008301526124188184612389565b905092915050565b600081519050919050565b600082825260208201905092915050565b6000819050602082019050919050565b600060608301600083015184820360008601526124698282611cb2565b915050602083015184820360208601526124838282611cb2565b9150506040830151848203604086015261249d8282611cb2565b9150508091505092915050565b60006124b6838361244c565b905092915050565b6000602082019050919050565b60006124d682612420565b6124e0818561242b565b9350836020820285016124f28561243c565b8060005b8581101561252e578484038952815161250f85826124aa565b945061251a836124be565b925060208a019950506001810190506124f6565b50829750879550505050505092915050565b6000602082019050818103600083015261255a81846124cb565b905092915050565b600081519050919050565b600082825260208201905092915050565b6000819050602082019050919050565b600060808301600083015184820360008601526125ab8282611cb2565b915050602083015184820360208601526125c58282611cb2565b915050604083015184820360408601526125df8282611cb2565b91505060608301516125f46060860182612064565b508091505092915050565b600061260b838361258e565b905092915050565b6000602082019050919050565b600061262b82612562565b612635818561256d565b9350836020820285016126478561257e565b8060005b85811015612683578484038952815161266485826125ff565b945061266f83612613565b925060208a0199505060018101905061264b565b50829750879550505050505092915050565b600060208201905081810360008301526126af8184612620565b905092915050565b7f4e487b7100000000000000000000000000000000000000000000000000000000600052602260045260246000fd5b600060028204905060018216806126fe57607f821691505b602082108103612711576127106126b7565b5b50919050565b60008190508160005260206000209050919050565b60006020601f8301049050919050565b600082821b905092915050565b6000600883026127797fffffffffffffffffffffffffffffffffffffffffffffffffffffffffffffffff8261273c565b612783868361273c565b95508019841693508086168417925050509392505050565b6000819050919050565b6000819050919050565b60006127ca6127c56127c08461279b565b6127a5565b61279b565b9050919050565b6000819050919050565b6127e4836127af565b6127f86127f0826127d1565b848454612749565b825550505050565b600090565b61280d612800565b6128188184846127db565b505050565b5b8181101561283c57612831600082612805565b60018101905061281e565b5050565b601f8211156128815761285281612717565b61285b8461272c565b8101602085101561286a578190505b61287e6128768561272c565b83018261281d565b50505b505050565b600082821c905092915050565b60006128a460001984600802612886565b1980831691505092915050565b60006128bd8383612893565b9150826002028217905092915050565b6128d682611c6c565b67ffffffffffffffff8111156128ef576128ee6119cf565b5b6128f982546126e6565b612904828285612840565b600060209050601f8311600181146129375760008415612925578287015190505b61292f85826128b1565b865550612997565b601f19841661294586612717565b60005b8281101561296d57848901518255600182019150602085019450602081019050612948565b8683101561298a5784890151612986601f891682612893565b8355505b6001600288020188555050505b505050505050565b600081905092915050565b60006129b582611c6c565b6129bf818561299f565b93506129cf818560208601611c88565b80840191505092915050565b60006129e782846129aa565b91508190509291505056fea264697066735822122041ee93f714651db95163ee2afb8d1eba25616a34a6bebade56039d3da6b170e664736f6c63430008180033",
  "linkReferences": {},
  "deployedLinkReferences": {}
}